{
  "contractName": "Casino",
  "abi": [
    {
      "constant": true,
      "inputs": [],
      "name": "LIMIT_AMOUNT_BETS",
      "outputs": [
        {
          "name": "",
          "type": "uint256"
        }
      ],
      "payable": false,
      "stateMutability": "view",
      "type": "function"
    },
    {
      "constant": true,
      "inputs": [],
      "name": "numberOfBets",
      "outputs": [
        {
          "name": "",
          "type": "uint256"
        }
      ],
      "payable": false,
      "stateMutability": "view",
      "type": "function"
    },
    {
      "constant": true,
      "inputs": [],
      "name": "numberWinner",
      "outputs": [
        {
          "name": "",
          "type": "uint256"
        }
      ],
      "payable": false,
      "stateMutability": "view",
      "type": "function"
    },
    {
      "constant": true,
      "inputs": [],
      "name": "minimumBet",
      "outputs": [
        {
          "name": "",
          "type": "uint256"
        }
      ],
      "payable": false,
      "stateMutability": "view",
      "type": "function"
    },
    {
      "constant": true,
      "inputs": [],
      "name": "maxAmountOfBets",
      "outputs": [
        {
          "name": "",
          "type": "uint256"
        }
      ],
      "payable": false,
      "stateMutability": "view",
      "type": "function"
    },
    {
      "constant": true,
      "inputs": [
        {
          "name": "",
          "type": "uint256"
        }
      ],
      "name": "players",
      "outputs": [
        {
          "name": "",
          "type": "address"
        }
      ],
      "payable": false,
      "stateMutability": "view",
      "type": "function"
    },
    {
      "constant": true,
      "inputs": [],
      "name": "totalBet",
      "outputs": [
        {
          "name": "",
          "type": "uint256"
        }
      ],
      "payable": false,
      "stateMutability": "view",
      "type": "function"
    },
    {
      "inputs": [
        {
          "name": "_minimumBet",
          "type": "uint256"
        },
        {
          "name": "_maxAmountOfBets",
          "type": "uint256"
        }
      ],
      "payable": false,
      "stateMutability": "nonpayable",
      "type": "constructor"
    },
    {
      "constant": false,
      "inputs": [
        {
          "name": "player",
          "type": "address"
        }
      ],
      "name": "checkPlayerExists",
      "outputs": [
        {
          "name": "",
          "type": "bool"
        }
      ],
      "payable": false,
      "stateMutability": "nonpayable",
      "type": "function"
    },
    {
      "constant": false,
      "inputs": [
        {
          "name": "numberToBet",
          "type": "uint256"
        }
      ],
      "name": "bet",
      "outputs": [],
      "payable": true,
      "stateMutability": "payable",
      "type": "function"
    },
    {
      "constant": false,
      "inputs": [],
      "name": "generateNumberWinner",
      "outputs": [],
      "payable": true,
      "stateMutability": "payable",
      "type": "function"
    },
    {
      "constant": false,
      "inputs": [
        {
          "name": "myid",
          "type": "bytes32"
        },
        {
          "name": "result",
          "type": "string"
        }
      ],
      "name": "__callback",
      "outputs": [],
      "payable": false,
      "stateMutability": "nonpayable",
      "type": "function"
    },
    {
      "constant": false,
      "inputs": [
        {
          "name": "_queryId",
          "type": "bytes32"
        },
        {
          "name": "_result",
          "type": "string"
        },
        {
          "name": "_proof",
          "type": "bytes"
        }
      ],
      "name": "__callback",
      "outputs": [],
      "payable": false,
      "stateMutability": "nonpayable",
      "type": "function"
    }
  ],
  "bytecode": "0x60806040526001600655600a6009553480156200001b57600080fd5b50604051604080620049c4833981018060405281019080805190602001909291908051906020019092919050505033600560006101000a81548173ffffffffffffffffffffffffffffffffffffffff021916908373ffffffffffffffffffffffffffffffffffffffff16021790555060008211156200009c57816006819055505b600081118015620000ae575060648111155b15620000bc57806009819055505b620000f960307f01000000000000000000000000000000000000000000000000000000000000000262000101640100000000026401000000009004565b505062000b05565b60008060009054906101000a900473ffffffffffffffffffffffffffffffffffffffff1673ffffffffffffffffffffffffffffffffffffffff1614806200018257506000620001806000809054906101000a900473ffffffffffffffffffffffffffffffffffffffff16620004b5640100000000026401000000009004565b145b15620001a557620001a36000620004c0640100000000026401000000009004565b505b6000809054906101000a900473ffffffffffffffffffffffffffffffffffffffff1673ffffffffffffffffffffffffffffffffffffffff166338cc48316040518163ffffffff167c0100000000000000000000000000000000000000000000000000000000028152600401602060405180830381600087803b1580156200022b57600080fd5b505af115801562000240573d6000803e3d6000fd5b505050506040513d60208110156200025757600080fd5b810190808051906020019092919050505073ffffffffffffffffffffffffffffffffffffffff16600160009054906101000a900473ffffffffffffffffffffffffffffffffffffffff1673ffffffffffffffffffffffffffffffffffffffff16141515620003c3576000809054906101000a900473ffffffffffffffffffffffffffffffffffffffff1673ffffffffffffffffffffffffffffffffffffffff166338cc48316040518163ffffffff167c0100000000000000000000000000000000000000000000000000000000028152600401602060405180830381600087803b1580156200034557600080fd5b505af11580156200035a573d6000803e3d6000fd5b505050506040513d60208110156200037157600080fd5b8101908080519060200190929190505050600160006101000a81548173ffffffffffffffffffffffffffffffffffffffff021916908373ffffffffffffffffffffffffffffffffffffffff1602179055505b600160009054906101000a900473ffffffffffffffffffffffffffffffffffffffff1673ffffffffffffffffffffffffffffffffffffffff1663688dcfd7826040518263ffffffff167c010000000000000000000000000000000000000000000000000000000002815260040180827effffffffffffffffffffffffffffffffffffffffffffffffffffffffffffff19167effffffffffffffffffffffffffffffffffffffffffffffffffffffffffffff19168152602001915050600060405180830381600087803b1580156200049957600080fd5b505af1158015620004ae573d6000803e3d6000fd5b5050505050565b6000813b9050919050565b6000620004db620004e2640100000000026401000000009004565b9050919050565b60008062000513731d3b2638a7cc9f2cb3d298a3da7a90b67e5506ed620004b5640100000000026401000000009004565b1115620005c757731d3b2638a7cc9f2cb3d298a3da7a90b67e5506ed6000806101000a81548173ffffffffffffffffffffffffffffffffffffffff021916908373ffffffffffffffffffffffffffffffffffffffff160217905550620005bd6040805190810160405280600b81526020017f6574685f6d61696e6e657400000000000000000000000000000000000000000081525062000a3a640100000000026401000000009004565b6001905062000a37565b6000620005f773c03a2615d5efaf5f49f60b7bb6583eaec212fdf1620004b5640100000000026401000000009004565b1115620006ab5773c03a2615d5efaf5f49f60b7bb6583eaec212fdf16000806101000a81548173ffffffffffffffffffffffffffffffffffffffff021916908373ffffffffffffffffffffffffffffffffffffffff160217905550620006a16040805190810160405280600c81526020017f6574685f726f707374656e33000000000000000000000000000000000000000081525062000a3a640100000000026401000000009004565b6001905062000a37565b6000620006db73b7a07bcf2ba2f2703b24c0691b5278999c59ac7e620004b5640100000000026401000000009004565b11156200078f5773b7a07bcf2ba2f2703b24c0691b5278999c59ac7e6000806101000a81548173ffffffffffffffffffffffffffffffffffffffff021916908373ffffffffffffffffffffffffffffffffffffffff160217905550620007856040805190810160405280600981526020017f6574685f6b6f76616e000000000000000000000000000000000000000000000081525062000a3a640100000000026401000000009004565b6001905062000a37565b6000620007bf73146500cfd35b22e4a392fe0adc06de1a1368ed48620004b5640100000000026401000000009004565b1115620008735773146500cfd35b22e4a392fe0adc06de1a1368ed486000806101000a81548173ffffffffffffffffffffffffffffffffffffffff021916908373ffffffffffffffffffffffffffffffffffffffff160217905550620008696040805190810160405280600b81526020017f6574685f72696e6b65627900000000000000000000000000000000000000000081525062000a3a640100000000026401000000009004565b6001905062000a37565b6000620008a3736f485c8bf6fc43ea212e93bbf8ce046c7f1cb475620004b5640100000000026401000000009004565b11156200090857736f485c8bf6fc43ea212e93bbf8ce046c7f1cb4756000806101000a81548173ffffffffffffffffffffffffffffffffffffffff021916908373ffffffffffffffffffffffffffffffffffffffff1602179055506001905062000a37565b6000620009387320e12a1f859b3feae5fb2a0a32c18f5a65555bbf620004b5640100000000026401000000009004565b11156200099d577320e12a1f859b3feae5fb2a0a32c18f5a65555bbf6000806101000a81548173ffffffffffffffffffffffffffffffffffffffff021916908373ffffffffffffffffffffffffffffffffffffffff1602179055506001905062000a37565b6000620009cd7351efaf4c8b3c9afbd5ab9f4bbc82784ab6ef8faa620004b5640100000000026401000000009004565b111562000a32577351efaf4c8b3c9afbd5ab9f4bbc82784ab6ef8faa6000806101000a81548173ffffffffffffffffffffffffffffffffffffffff021916908373ffffffffffffffffffffffffffffffffffffffff1602179055506001905062000a37565b600090505b90565b806002908051906020019062000a5292919062000a56565b5050565b828054600181600116156101000203166002900490600052602060002090601f016020900481019282601f1062000a9957805160ff191683800117855562000aca565b8280016001018555821562000aca579182015b8281111562000ac957825182559160200191906001019062000aac565b5b50905062000ad9919062000add565b5090565b62000b0291905b8082111562000afe57600081600090555060010162000ae4565b5090565b90565b613eaf8062000b156000396000f3006080604052600436106100ba576000357c0100000000000000000000000000000000000000000000000000000000900463ffffffff1680630a50e361146100bf5780631900874b146100c957806327dc297e146100f45780632ca8c6d31461016b57806338bbfa50146101965780634081d916146102535780637365870b146102ae5780639a6a68e9146102ce578063c38a8afd146102f9578063e08a96cd14610324578063f71d96cb1461034f578063fe5e1853146103bc575b600080fd5b6100c76103e7565b005b3480156100d557600080fd5b506100de610421565b6040518082815260200191505060405180910390f35b34801561010057600080fd5b506101696004803603810190808035600019169060200190929190803590602001908201803590602001908080601f0160208091040260200160405190810160405280939291908181526020018383808284378201915050505050509192919290505050610426565b005b34801561017757600080fd5b50610180610469565b6040518082815260200191505060405180910390f35b3480156101a257600080fd5b506102516004803603810190808035600019169060200190929190803590602001908201803590602001908080601f0160208091040260200160405190810160405280939291908181526020018383808284378201915050505050509192919290803590602001908201803590602001908080601f016020809104026020016040519081016040528093929190818152602001838380828437820191505050505050919291929050505061046f565b005b34801561025f57600080fd5b50610294600480360381019080803573ffffffffffffffffffffffffffffffffffffffff16906020019092919050505061076b565b604051808215151515815260200191505060405180910390f35b6102cc600480360381019080803590602001909291905050506107c7565b005b3480156102da57600080fd5b506102e361092c565b6040518082815260200191505060405180910390f35b34801561030557600080fd5b5061030e610932565b6040518082815260200191505060405180910390f35b34801561033057600080fd5b50610339610938565b6040518082815260200191505060405180910390f35b34801561035b57600080fd5b5061037a6004803603810190808035906020019092919050505061093e565b604051808273ffffffffffffffffffffffffffffffffffffffff1673ffffffffffffffffffffffffffffffffffffffff16815260200191505060405180910390f35b3480156103c857600080fd5b506103d161097c565b6040518082815260200191505060405180910390f35b6000806000806009546008541015151561040057600080fd5b600793506000925062030d409150610419838584610982565b905050505050565b606481565b610465828260006040519080825280601f01601f19166020018201604052801561045f5781602001602082028038833980820191505090505b5061046f565b5050565b60085481565b82828260007f4c000000000000000000000000000000000000000000000000000000000000008260008151811015156104a457fe5b9060200101517f010000000000000000000000000000000000000000000000000000000000000090047f0100000000000000000000000000000000000000000000000000000000000000027effffffffffffffffffffffffffffffffffffffffffffffffffffffffffffff19161480156105b857507f500000000000000000000000000000000000000000000000000000000000000082600181518110151561054957fe5b9060200101517f010000000000000000000000000000000000000000000000000000000000000090047f0100000000000000000000000000000000000000000000000000000000000000027effffffffffffffffffffffffffffffffffffffffffffffffffffffffffffff1916145b8015610661575060017f0100000000000000000000000000000000000000000000000000000000000000028260028151811015156105f257fe5b9060200101517f010000000000000000000000000000000000000000000000000000000000000090047f0100000000000000000000000000000000000000000000000000000000000000027effffffffffffffffffffffffffffffffffffffffffffffffffffffffffffff1916145b151561066c57600080fd5b61067f82858561067a610f48565b610fea565b905080151561068d57600080fd5b600954600854101515156106a057600080fd5b6106a86117da565b73ffffffffffffffffffffffffffffffffffffffff163373ffffffffffffffffffffffffffffffffffffffff161415156106de57fe5b6001600a876040518082805190602001908083835b60208310151561071857805182526020820191506020810190506020830392506106f3565b6001836020036101000a03801982511681845116808217855250505050505090500191505060405180910390206001900481151561075257fe5b0601600a81905550610762611b38565b50505050505050565b600080600d60008473ffffffffffffffffffffffffffffffffffffffff1673ffffffffffffffffffffffffffffffffffffffff1681526020019081526020016000205411156107bd57600190506107c2565b600090505b919050565b6009546008541015156107d957600080fd5b600015156107e63361076b565b15151415156107f457600080fd5b600181101580156108065750600a8111155b151561081157600080fd5b600654341015151561082257600080fd5b80600d60003373ffffffffffffffffffffffffffffffffffffffff1673ffffffffffffffffffffffffffffffffffffffff16815260200190815260200160002081905550600c60008281526020019081526020016000203390806001815401808255809150509060018203906000526020600020016000909192909190916101000a81548173ffffffffffffffffffffffffffffffffffffffff021916908373ffffffffffffffffffffffffffffffffffffffff16021790555050600160086000828254019250508190555060075434600754011015151561090357600080fd5b34600760008282540192505081905550600954600854101515610929576109286103e7565b5b50565b600a5481565b60065481565b60095481565b600b8181548110151561094d57fe5b906000526020600020016000915054906101000a900473ffffffffffffffffffffffffffffffffffffffff1681565b60075481565b600060608060606000606080610996613d95565b6000606060008c1180156109ab575060208c11155b15156109b657600080fd5b600a8d029c5060016040519080825280601f01601f1916602001820160405280156109f05781602001602082028038833980820191505090505b5098508b7f010000000000000000000000000000000000000000000000000000000000000002896000815181101515610a2557fe5b9060200101907effffffffffffffffffffffffffffffffffffffffffffffffffffffffffffff1916908160001a90535060206040519080825280601f01601f191660200182016040528015610a895781602001602082028038833980820191505090505b50975060206040519080825280601f01601f191660200182016040528015610ac05781602001602082028038833980820191505090505b509650610acb611cbb565b95506020885242411860014303401860208901526020875285602088015260206040519080825280601f01601f191660200182016040528015610b1d5781602001602082028038833980820191505090505b5094508c602086015260086040519080825280601f01601f191660200182016040528015610b5a5781602001602082028038833980820191505090505b509350610b6d8560186008876000612019565b506080604051908101604052808981526020018a8152602001888152602001868152509250610bd26040805190810160405280600681526020017f72616e646f6d0000000000000000000000000000000000000000000000000000815250848d612079565b915060086040519080825280601f01601f191660200182016040528015610c085781602001602082028038833980820191505090505b50905060208401517f0100000000000000000000000000000000000000000000000000000000000000810460278301537e01000000000000000000000000000000000000000000000000000000000000810460268301537d010000000000000000000000000000000000000000000000000000000000810460258301537c0100000000000000000000000000000000000000000000000000000000810460248301537b01000000000000000000000000000000000000000000000000000000810460238301537a010000000000000000000000000000000000000000000000000000810460228301537901000000000000000000000000000000000000000000000000008104602183015378010000000000000000000000000000000000000000000000008104602083015350610f358282856001600481101515610d4957fe5b60200201516002876000600481101515610d5f57fe5b60200201516040518082805190602001908083835b602083101515610d995780518252602082019150602081019050602083039250610d74565b6001836020036101000a0380198251168184511680821785525050505050509050019150506020604051808303816000865af1158015610ddd573d6000803e3d6000fd5b5050506040513d6020811015610df257600080fd5b8101908080519060200190929190505050876002600481101515610e1257fe5b60200201516040518085805190602001908083835b602083101515610e4c5780518252602082019150602081019050602083039250610e27565b6001836020036101000a03801982511681845116808217855250505050505090500184805190602001908083835b602083101515610e9f5780518252602082019150602081019050602083039250610e7a565b6001836020036101000a038019825116818451168082178552505050505050905001836000191660001916815260200182805190602001908083835b602083101515610f005780518252602082019150602081019050602083039250610edb565b6001836020036101000a0380198251168184511680821785525050505050509050019450505050506040518091039020612421565b8199505050505050505050509392505050565b606060028054600181600116156101000203166002900480601f016020809104026020016040519081016040528092919081815260200182805460018160011615610100020316600290048015610fe05780601f10610fb557610100808354040283529160200191610fe0565b820191906000526020600020905b815481529060010190602001808311610fc357829003601f168201915b5050505050905090565b6000806060806060806000806060602060028e604581518110151561100b57fe5b9060200101517f010000000000000000000000000000000000000000000000000000000000000090047f0100000000000000000000000000000000000000000000000000000000000000027f010000000000000000000000000000000000000000000000000000000000000090040160440101975060206040519080825280601f01601f1916602001820160405280156110b45781602001602082028038833980820191505090505b5096506110c68d8960208a6000612019565b5060028a8d6040518083805190602001908083835b60208310151561110057805182526020820191506020810190506020830392506110db565b6001836020036101000a0380198251168184511680821785525050505050509050018260001916600019168152602001925050506020604051808303816000865af1158015611153573d6000803e3d6000fd5b5050506040513d602081101561116857600080fd5b8101908080519060200190929190505050604051808260001916600019168152602001915050604051809103902060001916876040518082805190602001908083835b6020831015156111d057805182526020820191506020810190506020830392506111ab565b6001836020036101000a03801982511681845116808217855250505050505090500191505060405180910390206000191614151561121157600098506117ca565b60028d600160498b010181518110151561122757fe5b9060200101517f010000000000000000000000000000000000000000000000000000000000000090047f0100000000000000000000000000000000000000000000000000000000000000027f01000000000000000000000000000000000000000000000000000000000000009004016040519080825280601f01601f1916602001820160405280156112c85781602001602082028038833980820191505090505b5095506112dd8d60498a018851896000612019565b5061140b6002876040518082805190602001908083835b60208310151561131957805182526020820191506020810190506020830392506112f4565b6001836020036101000a0380198251168184511680821785525050505050509050019150506020604051808303816000865af115801561135d573d6000803e3d6000fd5b5050506040513d602081101561137257600080fd5b81019080805190602001909291905050508c8f600860208d010181518110151561139857fe5b9060200101517f010000000000000000000000000000000000000000000000000000000000000090047f0100000000000000000000000000000000000000000000000000000000000000027f01000000000000000000000000000000000000000000000000000000000000009004612449565b151561141a57600098506117ca565b60296040519080825280601f01601f19166020018201604052801561144e5781602001602082028038833980820191505090505b5094506114638d60208a016029886000612019565b50604080519080825280601f01601f1916602001820160405280156114975781602001602082028038833980820191505090505b50935060418651602960208b0101010192506114bb8d604085036040876000612019565b506002846040518082805190602001908083835b6020831015156114f457805182526020820191506020810190506020830392506114cf565b6001836020036101000a0380198251168184511680821785525050505050509050019150506020604051808303816000865af1158015611538573d6000803e3d6000fd5b5050506040513d602081101561154d57600080fd5b8101908080519060200190929190505050915084826040518083805190602001908083835b6020831015156115975780518252602082019150602081019050602083039250611572565b6001836020036101000a038019825116818451168082178552505050505050905001826000191660001916815260200192505050604051809103902060001916600360008e600019166000191681526020019081526020016000205460001916141561162157600360008d600019166000191681526020019081526020016000206000905561162a565b600098506117ca565b60496040519080825280601f01601f19166020018201604052801561165e5781602001602082028038833980820191505090505b5090506116708d896049846000612019565b5061171d6002826040518082805190602001908083835b6020831015156116ac5780518252602082019150602081019050602083039250611687565b6001836020036101000a0380198251168184511680821785525050505050509050019150506020604051808303816000865af11580156116f0573d6000803e3d6000fd5b5050506040513d602081101561170557600080fd5b81019080805190602001909291905050508786612561565b151561172c57600098506117ca565b6000151560046000846000191660001916815260200190815260200160002060009054906101000a900460ff161515141561179e5761176b8d8461288e565b60046000846000191660001916815260200190815260200160002060006101000a81548160ff0219169083151502179055505b60046000836000191660001916815260200190815260200160002060009054906101000a900460ff1698505b5050505050505050949350505050565b6000806000809054906101000a900473ffffffffffffffffffffffffffffffffffffffff1673ffffffffffffffffffffffffffffffffffffffff16148061184a575060006118486000809054906101000a900473ffffffffffffffffffffffffffffffffffffffff16612df4565b145b1561185b576118596000612dff565b505b6000809054906101000a900473ffffffffffffffffffffffffffffffffffffffff1673ffffffffffffffffffffffffffffffffffffffff166338cc48316040518163ffffffff167c0100000000000000000000000000000000000000000000000000000000028152600401602060405180830381600087803b1580156118e057600080fd5b505af11580156118f4573d6000803e3d6000fd5b505050506040513d602081101561190a57600080fd5b810190808051906020019092919050505073ffffffffffffffffffffffffffffffffffffffff16600160009054906101000a900473ffffffffffffffffffffffffffffffffffffffff1673ffffffffffffffffffffffffffffffffffffffff16141515611a72576000809054906101000a900473ffffffffffffffffffffffffffffffffffffffff1673ffffffffffffffffffffffffffffffffffffffff166338cc48316040518163ffffffff167c0100000000000000000000000000000000000000000000000000000000028152600401602060405180830381600087803b1580156119f657600080fd5b505af1158015611a0a573d6000803e3d6000fd5b505050506040513d6020811015611a2057600080fd5b8101908080519060200190929190505050600160006101000a81548173ffffffffffffffffffffffffffffffffffffffff021916908373ffffffffffffffffffffffffffffffffffffffff1602179055505b600160009054906101000a900473ffffffffffffffffffffffffffffffffffffffff1673ffffffffffffffffffffffffffffffffffffffff1663c281d19e6040518163ffffffff167c0100000000000000000000000000000000000000000000000000000000028152600401602060405180830381600087803b158015611af857600080fd5b505af1158015611b0c573d6000803e3d6000fd5b505050506040513d6020811015611b2257600080fd5b8101908080519060200190929190505050905090565b600080600060095460085410151515611b5057600080fd5b600c6000600a54815260200190815260200160002080549050600754811515611b7557fe5b049250600091505b600c6000600a5481526020019081526020016000208054905082108015611ba6575062030d405a115b15611c4b57600c6000600a54815260200190815260200160002082815481101515611bcd57fe5b9060005260206000200160009054906101000a900473ffffffffffffffffffffffffffffffffffffffff1673ffffffffffffffffffffffffffffffffffffffff166108fc849081150290604051600060405180830381858888f19350505050158015611c3d573d6000803e3d6000fd5b508180600101925050611b7d565b600190505b600a81111515611ca6576000600c6000838152602001908152602001600020805490501115611c9957600c60008281526020019081526020016000206000611c989190613dbd565b5b8080600101915050611c50565b60006007819055506000600881905550505050565b6000806000809054906101000a900473ffffffffffffffffffffffffffffffffffffffff1673ffffffffffffffffffffffffffffffffffffffff161480611d2b57506000611d296000809054906101000a900473ffffffffffffffffffffffffffffffffffffffff16612df4565b145b15611d3c57611d3a6000612dff565b505b6000809054906101000a900473ffffffffffffffffffffffffffffffffffffffff1673ffffffffffffffffffffffffffffffffffffffff166338cc48316040518163ffffffff167c0100000000000000000000000000000000000000000000000000000000028152600401602060405180830381600087803b158015611dc157600080fd5b505af1158015611dd5573d6000803e3d6000fd5b505050506040513d6020811015611deb57600080fd5b810190808051906020019092919050505073ffffffffffffffffffffffffffffffffffffffff16600160009054906101000a900473ffffffffffffffffffffffffffffffffffffffff1673ffffffffffffffffffffffffffffffffffffffff16141515611f53576000809054906101000a900473ffffffffffffffffffffffffffffffffffffffff1673ffffffffffffffffffffffffffffffffffffffff166338cc48316040518163ffffffff167c0100000000000000000000000000000000000000000000000000000000028152600401602060405180830381600087803b158015611ed757600080fd5b505af1158015611eeb573d6000803e3d6000fd5b505050506040513d6020811015611f0157600080fd5b8101908080519060200190929190505050600160006101000a81548173ffffffffffffffffffffffffffffffffffffffff021916908373ffffffffffffffffffffffffffffffffffffffff1602179055505b600160009054906101000a900473ffffffffffffffffffffffffffffffffffffffff1673ffffffffffffffffffffffffffffffffffffffff1663abaa5f3e6040518163ffffffff167c0100000000000000000000000000000000000000000000000000000000028152600401602060405180830381600087803b158015611fd957600080fd5b505af1158015611fed573d6000803e3d6000fd5b505050506040513d602081101561200357600080fd5b8101908080519060200190929190505050905090565b6060600080600084870192508286511015151561203557600080fd5b8760200191508460200190505b86886020010182101561206a5781890151808288015250602082019150602081019050612042565b85935050505095945050505050565b6000606060008060009054906101000a900473ffffffffffffffffffffffffffffffffffffffff1673ffffffffffffffffffffffffffffffffffffffff1614806120ec575060006120ea6000809054906101000a900473ffffffffffffffffffffffffffffffffffffffff16612df4565b145b156120fd576120fb6000612dff565b505b6000809054906101000a900473ffffffffffffffffffffffffffffffffffffffff1673ffffffffffffffffffffffffffffffffffffffff166338cc48316040518163ffffffff167c0100000000000000000000000000000000000000000000000000000000028152600401602060405180830381600087803b15801561218257600080fd5b505af1158015612196573d6000803e3d6000fd5b505050506040513d60208110156121ac57600080fd5b810190808051906020019092919050505073ffffffffffffffffffffffffffffffffffffffff16600160009054906101000a900473ffffffffffffffffffffffffffffffffffffffff1673ffffffffffffffffffffffffffffffffffffffff16141515612314576000809054906101000a900473ffffffffffffffffffffffffffffffffffffffff1673ffffffffffffffffffffffffffffffffffffffff166338cc48316040518163ffffffff167c0100000000000000000000000000000000000000000000000000000000028152600401602060405180830381600087803b15801561229857600080fd5b505af11580156122ac573d6000803e3d6000fd5b505050506040513d60208110156122c257600080fd5b8101908080519060200190929190505050600160006101000a81548173ffffffffffffffffffffffffffffffffffffffff021916908373ffffffffffffffffffffffffffffffffffffffff1602179055505b600460405190808252806020026020018201604052801561234957816020015b60608152602001906001900390816123345790505b50905083600060048110151561235b57fe5b602002015181600081518110151561236f57fe5b9060200190602002018190525083600160048110151561238b57fe5b602002015181600181518110151561239f57fe5b906020019060200201819052508360026004811015156123bb57fe5b60200201518160028151811015156123cf57fe5b906020019060200201819052508360036004811015156123eb57fe5b60200201518160038151811015156123ff57fe5b90602001906020020181905250612417858285612e10565b9150509392505050565b8060036000846000191660001916815260200190815260200160002081600019169055505050565b60008060006001915083855114151561246157600080fd5b600090505b8381101561255557848181518110151561247c57fe5b9060200101517f010000000000000000000000000000000000000000000000000000000000000090047f0100000000000000000000000000000000000000000000000000000000000000027effffffffffffffffffffffffffffffffffffffffffffffffffffffffffffff191686826020811015156124f757fe5b1a7f0100000000000000000000000000000000000000000000000000000000000000027effffffffffffffffffffffffffffffffffffffffffffffffffffffffffffff191614151561254857600091505b8080600101915050612466565b81925050509392505050565b600080600080600060606000606060206040519080825280601f01601f1916602001820160405280156125a35781602001602082028038833980820191505090505b50925060208a60038151811015156125b757fe5b9060200101517f010000000000000000000000000000000000000000000000000000000000000090047f0100000000000000000000000000000000000000000000000000000000000000027f0100000000000000000000000000000000000000000000000000000000000000900403600401915061263a8a836020866000612019565b925060206040519080825280601f01601f1916602001820160405280156126705781602001602082028038833980820191505090505b50905060228201915061270b8a60208c6001860381518110151561269057fe5b9060200101517f010000000000000000000000000000000000000000000000000000000000000090047f0100000000000000000000000000000000000000000000000000000000000000027f010000000000000000000000000000000000000000000000000000000000000090040384016020846000612019565b905060208301519450602081015193506127288b601b87876133ce565b80975081985050508573ffffffffffffffffffffffffffffffffffffffff16896040518082805190602001908083835b60208310151561277d5780518252602082019150602081019050602083039250612758565b6001836020036101000a03801982511681845116808217855250505050505090500191505060405180910390206001900473ffffffffffffffffffffffffffffffffffffffff1614156127d35760019750612880565b6127e08b601c87876133ce565b80975081985050508573ffffffffffffffffffffffffffffffffffffffff16896040518082805190602001908083835b6020831015156128355780518252602082019150602081019050602083039250612810565b6001836020036101000a03801982511681845116808217855250505050505090500191505060405180910390206001900473ffffffffffffffffffffffffffffffffffffffff161497505b505050505050509392505050565b600080606080606080606080606060028b60018c018151811015156128af57fe5b9060200101517f010000000000000000000000000000000000000000000000000000000000000090047f0100000000000000000000000000000000000000000000000000000000000000027f01000000000000000000000000000000000000000000000000000000000000009004016040519080825280601f01601f1916602001820160405280156129505781602001602082028038833980820191505090505b5096506129628b8b89518a6000612019565b50604080519080825280601f01601f1916602001820160405280156129965781602001602082028038833980820191505090505b5095506129a98b60046040896000612019565b5060626040519080825280601f01601f1916602001820160405280156129de5781602001602082028038833980820191505090505b50945060017f010000000000000000000000000000000000000000000000000000000000000002856000815181101515612a1457fe5b9060200101907effffffffffffffffffffffffffffffffffffffffffffffffffffffffffffff1916908160001a905350612a568b60418c036041886001612019565b506040805190810160405280602081526020017ffd94fa71bc0ba10d39d464d0d8f465efeef0a2764e3887fcc9df41ded20f505c8152509350612a9f8460006020886042612019565b50612b4c6002866040518082805190602001908083835b602083101515612adb5780518252602082019150602081019050602083039250612ab6565b6001836020036101000a0380198251168184511680821785525050505050509050019150506020604051808303816000865af1158015612b1f573d6000803e3d6000fd5b5050506040513d6020811015612b3457600080fd5b81019080805190602001909291905050508888612561565b9750600015158815151415612b645760009850612de6565b606060405190810160405280604081526020017f7fb956469c5c9b89840d55b43537e66a98dd4811ea0a27224272c2e5622911e881526020017f537a2f8e86a46baec82864e98dd01e9ccc2f8bc5dfc9cbe5a91a290498dd96e4815250925060426040519080825280601f01601f191660200182016040528015612bf75781602001602082028038833980820191505090505b50915060fe7f010000000000000000000000000000000000000000000000000000000000000002826000815181101515612c2d57fe5b9060200101907effffffffffffffffffffffffffffffffffffffffffffffffffffffffffffff1916908160001a905350612c6d8b60036041856001612019565b5060028b6045815181101515612c7f57fe5b9060200101517f010000000000000000000000000000000000000000000000000000000000000090047f0100000000000000000000000000000000000000000000000000000000000000027f01000000000000000000000000000000000000000000000000000000000000009004016040519080825280601f01601f191660200182016040528015612d205781602001602082028038833980820191505090505b509050612d338b60448351846000612019565b50612de06002836040518082805190602001908083835b602083101515612d6f5780518252602082019150602081019050602083039250612d4a565b6001836020036101000a0380198251168184511680821785525050505050509050019150506020604051808303816000865af1158015612db3573d6000803e3d6000fd5b5050506040513d6020811015612dc857600080fd5b81019080805190602001909291905050508285612561565b97508798505b505050505050505092915050565b6000813b9050919050565b6000612e09613412565b9050919050565b600080606060008060009054906101000a900473ffffffffffffffffffffffffffffffffffffffff1673ffffffffffffffffffffffffffffffffffffffff161480612e8457506000612e826000809054906101000a900473ffffffffffffffffffffffffffffffffffffffff16612df4565b145b15612e9557612e936000612dff565b505b6000809054906101000a900473ffffffffffffffffffffffffffffffffffffffff1673ffffffffffffffffffffffffffffffffffffffff166338cc48316040518163ffffffff167c0100000000000000000000000000000000000000000000000000000000028152600401602060405180830381600087803b158015612f1a57600080fd5b505af1158015612f2e573d6000803e3d6000fd5b505050506040513d6020811015612f4457600080fd5b810190808051906020019092919050505073ffffffffffffffffffffffffffffffffffffffff16600160009054906101000a900473ffffffffffffffffffffffffffffffffffffffff1673ffffffffffffffffffffffffffffffffffffffff161415156130ac576000809054906101000a900473ffffffffffffffffffffffffffffffffffffffff1673ffffffffffffffffffffffffffffffffffffffff166338cc48316040518163ffffffff167c0100000000000000000000000000000000000000000000000000000000028152600401602060405180830381600087803b15801561303057600080fd5b505af1158015613044573d6000803e3d6000fd5b505050506040513d602081101561305a57600080fd5b8101908080519060200190929190505050600160006101000a81548173ffffffffffffffffffffffffffffffffffffffff021916908373ffffffffffffffffffffffffffffffffffffffff1602179055505b600160009054906101000a900473ffffffffffffffffffffffffffffffffffffffff1673ffffffffffffffffffffffffffffffffffffffff16632ef3accc87866040518363ffffffff167c01000000000000000000000000000000000000000000000000000000000281526004018080602001838152602001828103825284818151815260200191508051906020019080838360005b8381101561315d578082015181840152602081019050613142565b50505050905090810190601f16801561318a5780820380516001836020036101000a031916815260200191505b509350505050602060405180830381600087803b1580156131aa57600080fd5b505af11580156131be573d6000803e3d6000fd5b505050506040513d60208110156131d457600080fd5b81019080805190602001909291905050509150833a02670de0b6b3a76400000182111561320757600060010292506133c5565b613210856138a1565b9050600160009054906101000a900473ffffffffffffffffffffffffffffffffffffffff1673ffffffffffffffffffffffffffffffffffffffff1663c55c1cb68360008985896040518663ffffffff167c0100000000000000000000000000000000000000000000000000000000028152600401808581526020018060200180602001848152602001838103835286818151815260200191508051906020019080838360005b838110156132d15780820151818401526020810190506132b6565b50505050905090810190601f1680156132fe5780820380516001836020036101000a031916815260200191505b50838103825285818151815260200191508051906020019080838360005b8381101561333757808201518184015260208101905061331c565b50505050905090810190601f1680156133645780820380516001836020036101000a031916815260200191505b5096505050505050506020604051808303818588803b15801561338657600080fd5b505af115801561339a573d6000803e3d6000fd5b50505050506040513d60208110156133b157600080fd5b810190808051906020019092919050505092505b50509392505050565b60008060008060405188815287602082015286604082015285606082015260208160808360006001610bb8f192508051915050818193509350505094509492505050565b600080613432731d3b2638a7cc9f2cb3d298a3da7a90b67e5506ed612df4565b11156134d357731d3b2638a7cc9f2cb3d298a3da7a90b67e5506ed6000806101000a81548173ffffffffffffffffffffffffffffffffffffffff021916908373ffffffffffffffffffffffffffffffffffffffff1602179055506134ca6040805190810160405280600b81526020017f6574685f6d61696e6e6574000000000000000000000000000000000000000000815250613d7b565b6001905061389e565b60006134f273c03a2615d5efaf5f49f60b7bb6583eaec212fdf1612df4565b11156135935773c03a2615d5efaf5f49f60b7bb6583eaec212fdf16000806101000a81548173ffffffffffffffffffffffffffffffffffffffff021916908373ffffffffffffffffffffffffffffffffffffffff16021790555061358a6040805190810160405280600c81526020017f6574685f726f707374656e330000000000000000000000000000000000000000815250613d7b565b6001905061389e565b60006135b273b7a07bcf2ba2f2703b24c0691b5278999c59ac7e612df4565b11156136535773b7a07bcf2ba2f2703b24c0691b5278999c59ac7e6000806101000a81548173ffffffffffffffffffffffffffffffffffffffff021916908373ffffffffffffffffffffffffffffffffffffffff16021790555061364a6040805190810160405280600981526020017f6574685f6b6f76616e0000000000000000000000000000000000000000000000815250613d7b565b6001905061389e565b600061367273146500cfd35b22e4a392fe0adc06de1a1368ed48612df4565b11156137135773146500cfd35b22e4a392fe0adc06de1a1368ed486000806101000a81548173ffffffffffffffffffffffffffffffffffffffff021916908373ffffffffffffffffffffffffffffffffffffffff16021790555061370a6040805190810160405280600b81526020017f6574685f72696e6b656279000000000000000000000000000000000000000000815250613d7b565b6001905061389e565b6000613732736f485c8bf6fc43ea212e93bbf8ce046c7f1cb475612df4565b111561379557736f485c8bf6fc43ea212e93bbf8ce046c7f1cb4756000806101000a81548173ffffffffffffffffffffffffffffffffffffffff021916908373ffffffffffffffffffffffffffffffffffffffff1602179055506001905061389e565b60006137b47320e12a1f859b3feae5fb2a0a32c18f5a65555bbf612df4565b1115613817577320e12a1f859b3feae5fb2a0a32c18f5a65555bbf6000806101000a81548173ffffffffffffffffffffffffffffffffffffffff021916908373ffffffffffffffffffffffffffffffffffffffff1602179055506001905061389e565b60006138367351efaf4c8b3c9afbd5ab9f4bbc82784ab6ef8faa612df4565b1115613899577351efaf4c8b3c9afbd5ab9f4bbc82784ab6ef8faa6000806101000a81548173ffffffffffffffffffffffffffffffffffffffff021916908373ffffffffffffffffffffffffffffffffffffffff1602179055506001905061389e565b600090505b90565b606060008060606000806000606060008060008b51995060009850896040519080825280602002602001820160405280156138f057816020015b60608152602001906001900390816138db5790505b509750600096505b89871015613989578b8781518110151561390e57fe5b90602001906020020151888881518110151561392657fe5b906020019060200201819052506003601760018a8a81518110151561394757fe5b90602001906020020151510381151561395c57fe5b04898981518110151561396b57fe5b906020019060200201515101018901985086806001019750506138f8565b6000955060808a019450600160ff1689019850886040519080825280601f01601f1916602001820160405280156139cf5781602001602082028038833980820191505090505b5093505b85600160ff161115613a7d57847f01000000000000000000000000000000000000000000000000000000000000000286600181101515613a0f57fe5b1a7f0100000000000000000000000000000000000000000000000000000000000000028487815181101515613a4057fe5b9060200101907effffffffffffffffffffffffffffffffffffffffffffffffffffffffffffff1916908160001a90535085806001019650506139d3565b600096505b89871015613d6957605f7f0100000000000000000000000000000000000000000000000000000000000000028487815181101515613abc57fe5b9060200101907effffffffffffffffffffffffffffffffffffffffffffffffffffffffffffff1916908160001a9053508580600101965050600092505b8787815181101515613b0757fe5b9060200190602002015151831015613cf2576000601784811515613b2757fe5b061415613c2f576018838989815181101515613b3f57fe5b9060200190602002015151031015613b7157828888815181101515613b6057fe5b906020019060200201515103613b74565b60175b91506040820191508590505b808603600160ff161115613c2e57817f010000000000000000000000000000000000000000000000000000000000000002818703600181101515613bc057fe5b1a7f0100000000000000000000000000000000000000000000000000000000000000028487815181101515613bf157fe5b9060200101907effffffffffffffffffffffffffffffffffffffffffffffffffffffffffffff1916908160001a9053508580600101965050613b80565b5b8787815181101515613c3d57fe5b9060200190602002015183815181101515613c5457fe5b9060200101517f010000000000000000000000000000000000000000000000000000000000000090047f0100000000000000000000000000000000000000000000000000000000000000028487815181101515613cad57fe5b9060200101907effffffffffffffffffffffffffffffffffffffffffffffffffffffffffffff1916908160001a90535085806001019650508280600101935050613af9565b60ff7f0100000000000000000000000000000000000000000000000000000000000000028487815181101515613d2457fe5b9060200101907effffffffffffffffffffffffffffffffffffffffffffffffffffffffffffff1916908160001a90535085806001019650508680600101975050613a82565b839a5050505050505050505050919050565b8060029080519060200190613d91929190613dde565b5050565b6080604051908101604052806004905b6060815260200190600190039081613da55790505090565b5080546000825590600052602060002090810190613ddb9190613e5e565b50565b828054600181600116156101000203166002900490600052602060002090601f016020900481019282601f10613e1f57805160ff1916838001178555613e4d565b82800160010185558215613e4d579182015b82811115613e4c578251825591602001919060010190613e31565b5b509050613e5a9190613e5e565b5090565b613e8091905b80821115613e7c576000816000905550600101613e64565b5090565b905600a165627a7a72305820e986c87dc790d568be133102304856ec528b56e2c0d1ec03be0f23e648e7dd510029",
  "source": "pragma solidity ^0.4.18;\n\n\nimport \"installed_contracts/oraclize-api/contracts/usingOraclize.sol\";\n\n\n/*   \n     https://consensys.github.io/smart-contract-best-practices/known_attacks/\n    Manual checking for known attacks\n    reetrancy NO\n    cross--function race conditioons\n    pitfalls in race conditions NO\n    Transaction-Ordering Dependence (TOD) / Front Running  NO\n    Integer Overflow and Underflow NO\n    DoS with (Unexpected) revert NO\n    DoS with Block Gas Limit  NO\n    Batch overflow NO\n    Parity vulnerability NO\n\n\n\n\n\n\n\n\n\n\n\n\n\n\n*/\n\n\n\n\ncontract Casino is usingOraclize {\n\n   address owner;\n\n\n   // The minimum bet a user has to make to participate in the game\n   uint public minimumBet = 1 ; // 1 ether\n\n   // The total amount of Ether bet for this current game\n   uint public totalBet;\n\n   // The total number of bets the users have made\n   uint public numberOfBets;\n\n  // The maximum amount of bets can be made for each game\n   uint public maxAmountOfBets = 10;\n\n\n// The max amount of bets that cannot be exceeded to avoid excessive gas consumption\n   // when distributing the prizes and restarting the game\n   uint public constant LIMIT_AMOUNT_BETS = 100;\n\n   // The number that won the last game\n   uint public numberWinner;\n\n\n   // Array of players\n   address[] public players;\n\n   // Each number has an array of players. Associate each number with a bunch of players\n   mapping(uint => address[]) numberBetPlayers;\n\n   // The number that each player has bet for\n   mapping(address => uint) playerBetsNumber;\n\n   // Modifier to only allow the execution of functions when the bets are completed\n   modifier onEndGame(){\n      require(numberOfBets >= maxAmountOfBets); _;\n   }\n\n   /// @notice Constructor that's used to configure the minimum bet per game and the max amount of bets\n   /// @param _minimumBet The minimum bet that each user has to make in order to participate in the game\n   /// @param _maxAmountOfBets The max amount of bets that are required for each game\n constructor (uint _minimumBet, uint _maxAmountOfBets)  public {\n\n     \n      owner = msg.sender;\n\n     if(_minimumBet > 0) minimumBet = _minimumBet;\n     if(_maxAmountOfBets > 0 && _maxAmountOfBets <= LIMIT_AMOUNT_BETS)\n      maxAmountOfBets = _maxAmountOfBets;\n\n      // Set the proof of oraclize in order to make secure random number generations\n     //  Encountered issue by calling the constructor, commented setProof then works fine\n     // \n     oraclize_setProof(proofType_Ledger);\n   }\n\n   /// @notice Check if a player exists in the current game\n   /// @param player The address of the player to check\n   /// @return bool Returns true is it exists or false if it doesn't\n   function checkPlayerExists(address player) returns(bool){\n      if(playerBetsNumber[player] > 0) return true;\n      else \n      return false;\n     }\n\n   /// @notice To bet for a number by sending Ether\n   /// @param numberToBet The number that the player wants to bet for. Must be between 1 and 10 both inclusive\n   function bet(uint numberToBet) payable{\n\n      // Check that the max amount of bets hasn't been met yet\n      require(numberOfBets < maxAmountOfBets);\n\n      // Check that the player doesn't exists\n      require(checkPlayerExists(msg.sender) == false);\n\n      // Check that the number to bet is within the range\n      require(numberToBet >= 1 && numberToBet <= 10);\n\n      // Check that the amount paid is t\n      require(msg.value >= minimumBet);      \n\n      // Set the number bet for that player\n      playerBetsNumber[msg.sender] = numberToBet;\n\n      // The player msg.sender has bet for that number\n      numberBetPlayers[numberToBet].push(msg.sender);\n\n      numberOfBets += 1;\n      //prevent totalBet from overflow\n      require(totalBet + msg.value >= totalBet);\n      totalBet += msg.value;\n\n      if(numberOfBets >= maxAmountOfBets) generateNumberWinner();\n   }\n\n   /// @notice Generates a random number between 1 and 10 both inclusive.\n   /// Must be payable because oraclize needs gas to generate a random number.\n   /// Can only be executed when the game ends.\n   function generateNumberWinner() payable  onEndGame {\n      uint numberRandomBytes = 7;\n      uint delay = 0;\n      uint callbackGas = 200000;\n\n      bytes32 queryId = oraclize_newRandomDSQuery(delay, numberRandomBytes, callbackGas);\n   }\n\n   /// @notice Callback function that gets called by oraclize when the random number is generated\n   /// @param _queryId The query id that was generated to proofVerify\n   /// @param _result String that contains the number generated\n   /// @param _proof A string with a proof code to verify the authenticity of the number generation\n    function __callback( \n     bytes32 _queryId, \n     string _result, \n     bytes _proof\n     ) oraclize_randomDS_proofVerify(_queryId, _result, _proof) onEndGame {\n       \n    \n\n      // Checks that the sender of this callback was in fact oraclize\n      assert(msg.sender == oraclize_cbAddress());\n\n      numberWinner = (uint(sha3(_result))%10+1);\n      distributePrizes();\n   }\n\n   /// @notice Sends the corresponding Ether to each winner then deletes all the\n   /// players for the next game and resets the `totalBet` and `numberOfBets`\n   function distributePrizes() private onEndGame {\n      uint winnerWeiAmount = totalBet / numberBetPlayers[numberWinner].length; // How much each winner gets\n\n      // Loop through all the winners to send the corresponding prize for each one\n      //Ensure that we have sufficint amount of gas for transfer otherwise all transactions from for loop will be reverted\n      for(uint i = 0; i < numberBetPlayers[numberWinner].length && msg.gas > 200000; i++){\n         numberBetPlayers[numberWinner][i].transfer(winnerWeiAmount);\n      }\n\n      // Delete all the players for each number\n      for(uint j = 1; j <= 10; j++){\n         if (numberBetPlayers[j].length > 0)  delete numberBetPlayers[j];\n      }\n         \n      \n\n      totalBet = 0;\n      numberOfBets = 0;\n   }\n\n\n\n}",
  "sourcePath": "/home/ai/Desktop/casino/casino/ether-casino/ether-casino/casino-test/contracts/Casino.sol",
  "compiler": {
    "name": "solc",
    "version": "0.4.24+commit.e67f0147.Emscripten.clang"
  },
  "schemaVersion": "2.0.1",
  "updatedAt": "2018-07-23T19:15:43.310Z"
}